{
  "_format": "hh-sol-artifact-1",
  "contractName": "BasicNft",
  "sourceName": "contracts/test/BasicNft.sol",
  "abi": [
    {
      "inputs": [],
      "stateMutability": "nonpayable",
      "type": "constructor"
    },
    {
      "anonymous": false,
      "inputs": [
        {
          "indexed": true,
          "internalType": "address",
          "name": "owner",
          "type": "address"
        },
        {
          "indexed": true,
          "internalType": "address",
          "name": "approved",
          "type": "address"
        },
        {
          "indexed": true,
          "internalType": "uint256",
          "name": "tokenId",
          "type": "uint256"
        }
      ],
      "name": "Approval",
      "type": "event"
    },
    {
      "anonymous": false,
      "inputs": [
        {
          "indexed": true,
          "internalType": "address",
          "name": "owner",
          "type": "address"
        },
        {
          "indexed": true,
          "internalType": "address",
          "name": "operator",
          "type": "address"
        },
        {
          "indexed": false,
          "internalType": "bool",
          "name": "approved",
          "type": "bool"
        }
      ],
      "name": "ApprovalForAll",
      "type": "event"
    },
    {
      "anonymous": false,
      "inputs": [
        {
          "indexed": true,
          "internalType": "address",
          "name": "from",
          "type": "address"
        },
        {
          "indexed": true,
          "internalType": "address",
          "name": "to",
          "type": "address"
        },
        {
          "indexed": true,
          "internalType": "uint256",
          "name": "tokenId",
          "type": "uint256"
        }
      ],
      "name": "Transfer",
      "type": "event"
    },
    {
      "inputs": [],
      "name": "TOKEN_URI",
      "outputs": [
        {
          "internalType": "string",
          "name": "",
          "type": "string"
        }
      ],
      "stateMutability": "view",
      "type": "function"
    },
    {
      "inputs": [
        {
          "internalType": "address",
          "name": "to",
          "type": "address"
        },
        {
          "internalType": "uint256",
          "name": "tokenId",
          "type": "uint256"
        }
      ],
      "name": "approve",
      "outputs": [],
      "stateMutability": "nonpayable",
      "type": "function"
    },
    {
      "inputs": [
        {
          "internalType": "address",
          "name": "owner",
          "type": "address"
        }
      ],
      "name": "balanceOf",
      "outputs": [
        {
          "internalType": "uint256",
          "name": "",
          "type": "uint256"
        }
      ],
      "stateMutability": "view",
      "type": "function"
    },
    {
      "inputs": [
        {
          "internalType": "uint256",
          "name": "tokenId",
          "type": "uint256"
        }
      ],
      "name": "getApproved",
      "outputs": [
        {
          "internalType": "address",
          "name": "",
          "type": "address"
        }
      ],
      "stateMutability": "view",
      "type": "function"
    },
    {
      "inputs": [],
      "name": "getTokenCouter",
      "outputs": [
        {
          "internalType": "uint256",
          "name": "",
          "type": "uint256"
        }
      ],
      "stateMutability": "view",
      "type": "function"
    },
    {
      "inputs": [
        {
          "internalType": "address",
          "name": "owner",
          "type": "address"
        },
        {
          "internalType": "address",
          "name": "operator",
          "type": "address"
        }
      ],
      "name": "isApprovedForAll",
      "outputs": [
        {
          "internalType": "bool",
          "name": "",
          "type": "bool"
        }
      ],
      "stateMutability": "view",
      "type": "function"
    },
    {
      "inputs": [],
      "name": "mintNft",
      "outputs": [
        {
          "internalType": "uint256",
          "name": "",
          "type": "uint256"
        }
      ],
      "stateMutability": "nonpayable",
      "type": "function"
    },
    {
      "inputs": [],
      "name": "name",
      "outputs": [
        {
          "internalType": "string",
          "name": "",
          "type": "string"
        }
      ],
      "stateMutability": "view",
      "type": "function"
    },
    {
      "inputs": [
        {
          "internalType": "uint256",
          "name": "tokenId",
          "type": "uint256"
        }
      ],
      "name": "ownerOf",
      "outputs": [
        {
          "internalType": "address",
          "name": "",
          "type": "address"
        }
      ],
      "stateMutability": "view",
      "type": "function"
    },
    {
      "inputs": [
        {
          "internalType": "address",
          "name": "from",
          "type": "address"
        },
        {
          "internalType": "address",
          "name": "to",
          "type": "address"
        },
        {
          "internalType": "uint256",
          "name": "tokenId",
          "type": "uint256"
        }
      ],
      "name": "safeTransferFrom",
      "outputs": [],
      "stateMutability": "nonpayable",
      "type": "function"
    },
    {
      "inputs": [
        {
          "internalType": "address",
          "name": "from",
          "type": "address"
        },
        {
          "internalType": "address",
          "name": "to",
          "type": "address"
        },
        {
          "internalType": "uint256",
          "name": "tokenId",
          "type": "uint256"
        },
        {
          "internalType": "bytes",
          "name": "data",
          "type": "bytes"
        }
      ],
      "name": "safeTransferFrom",
      "outputs": [],
      "stateMutability": "nonpayable",
      "type": "function"
    },
    {
      "inputs": [
        {
          "internalType": "address",
          "name": "operator",
          "type": "address"
        },
        {
          "internalType": "bool",
          "name": "approved",
          "type": "bool"
        }
      ],
      "name": "setApprovalForAll",
      "outputs": [],
      "stateMutability": "nonpayable",
      "type": "function"
    },
    {
      "inputs": [
        {
          "internalType": "bytes4",
          "name": "interfaceId",
          "type": "bytes4"
        }
      ],
      "name": "supportsInterface",
      "outputs": [
        {
          "internalType": "bool",
          "name": "",
          "type": "bool"
        }
      ],
      "stateMutability": "view",
      "type": "function"
    },
    {
      "inputs": [],
      "name": "symbol",
      "outputs": [
        {
          "internalType": "string",
          "name": "",
          "type": "string"
        }
      ],
      "stateMutability": "view",
      "type": "function"
    },
    {
      "inputs": [
        {
          "internalType": "uint256",
          "name": "",
          "type": "uint256"
        }
      ],
      "name": "tokenURI",
      "outputs": [
        {
          "internalType": "string",
          "name": "",
          "type": "string"
        }
      ],
      "stateMutability": "view",
      "type": "function"
    },
    {
      "inputs": [
        {
          "internalType": "address",
          "name": "from",
          "type": "address"
        },
        {
          "internalType": "address",
          "name": "to",
          "type": "address"
        },
        {
          "internalType": "uint256",
          "name": "tokenId",
          "type": "uint256"
        }
      ],
      "name": "transferFrom",
      "outputs": [],
      "stateMutability": "nonpayable",
      "type": "function"
    }
  ],
  "bytecode": "0x60806040523480156200001157600080fd5b506040518060400160405280600681526020017f646f6767696500000000000000000000000000000000000000000000000000008152506040518060400160405280600381526020017f444f470000000000000000000000000000000000000000000000000000000000815250816000908051906020019062000096929190620000c0565b508060019080519060200190620000af929190620000c0565b5050506000600681905550620001d5565b828054620000ce906200019f565b90600052602060002090601f016020900481019282620000f257600085556200013e565b82601f106200010d57805160ff19168380011785556200013e565b828001600101855582156200013e579182015b828111156200013d57825182559160200191906001019062000120565b5b5090506200014d919062000151565b5090565b5b808211156200016c57600081600090555060010162000152565b5090565b7f4e487b7100000000000000000000000000000000000000000000000000000000600052602260045260246000fd5b60006002820490506001821680620001b857607f821691505b60208210811415620001cf57620001ce62000170565b5b50919050565b6122cd80620001e56000396000f3fe608060405234801561001057600080fd5b50600436106101005760003560e01c806370a0823111610097578063b88d4fde11610066578063b88d4fde146102ad578063c2229fea146102c9578063c87b56dd146102e7578063e985e9c51461031757610100565b806370a082311461022557806378ce90351461025557806395d89b4114610273578063a22cb4651461029157610100565b80631bcf6b9b116100d35780631bcf6b9b1461019f57806323b872dd146101bd57806342842e0e146101d95780636352211e146101f557610100565b806301ffc9a71461010557806306fdde0314610135578063081812fc14610153578063095ea7b314610183575b600080fd5b61011f600480360381019061011a919061153e565b610347565b60405161012c9190611586565b60405180910390f35b61013d610429565b60405161014a919061163a565b60405180910390f35b61016d60048036038101906101689190611692565b6104bb565b60405161017a9190611700565b60405180910390f35b61019d60048036038101906101989190611747565b610501565b005b6101a7610619565b6040516101b49190611796565b60405180910390f35b6101d760048036038101906101d291906117b1565b610623565b005b6101f360048036038101906101ee91906117b1565b610683565b005b61020f600480360381019061020a9190611692565b6106a3565b60405161021c9190611700565b60405180910390f35b61023f600480360381019061023a9190611804565b610755565b60405161024c9190611796565b60405180910390f35b61025d61080d565b60405161026a919061163a565b60405180910390f35b61027b610829565b604051610288919061163a565b60405180910390f35b6102ab60048036038101906102a6919061185d565b6108bb565b005b6102c760048036038101906102c291906119d2565b6108d1565b005b6102d1610933565b6040516102de9190611796565b60405180910390f35b61030160048036038101906102fc9190611692565b61095e565b60405161030e919061163a565b60405180910390f35b610331600480360381019061032c9190611a55565b610980565b60405161033e9190611586565b60405180910390f35b60007f80ac58cd000000000000000000000000000000000000000000000000000000007bffffffffffffffffffffffffffffffffffffffffffffffffffffffff1916827bffffffffffffffffffffffffffffffffffffffffffffffffffffffff1916148061041257507f5b5e139f000000000000000000000000000000000000000000000000000000007bffffffffffffffffffffffffffffffffffffffffffffffffffffffff1916827bffffffffffffffffffffffffffffffffffffffffffffffffffffffff1916145b80610422575061042182610a14565b5b9050919050565b60606000805461043890611ac4565b80601f016020809104026020016040519081016040528092919081815260200182805461046490611ac4565b80156104b15780601f10610486576101008083540402835291602001916104b1565b820191906000526020600020905b81548152906001019060200180831161049457829003601f168201915b5050505050905090565b60006104c682610a7e565b6004600083815260200190815260200160002060009054906101000a900473ffffffffffffffffffffffffffffffffffffffff169050919050565b600061050c826106a3565b90508073ffffffffffffffffffffffffffffffffffffffff168373ffffffffffffffffffffffffffffffffffffffff16141561057d576040517f08c379a000000000000000000000000000000000000000000000000000000000815260040161057490611b68565b60405180910390fd5b8073ffffffffffffffffffffffffffffffffffffffff1661059c610ac9565b73ffffffffffffffffffffffffffffffffffffffff1614806105cb57506105ca816105c5610ac9565b610980565b5b61060a576040517f08c379a000000000000000000000000000000000000000000000000000000000815260040161060190611bfa565b60405180910390fd5b6106148383610ad1565b505050565b6000600654905090565b61063461062e610ac9565b82610b8a565b610673576040517f08c379a000000000000000000000000000000000000000000000000000000000815260040161066a90611c8c565b60405180910390fd5b61067e838383610c1f565b505050565b61069e838383604051806020016040528060008152506108d1565b505050565b6000806002600084815260200190815260200160002060009054906101000a900473ffffffffffffffffffffffffffffffffffffffff169050600073ffffffffffffffffffffffffffffffffffffffff168173ffffffffffffffffffffffffffffffffffffffff16141561074c576040517f08c379a000000000000000000000000000000000000000000000000000000000815260040161074390611cf8565b60405180910390fd5b80915050919050565b60008073ffffffffffffffffffffffffffffffffffffffff168273ffffffffffffffffffffffffffffffffffffffff1614156107c6576040517f08c379a00000000000000000000000000000000000000000000000000000000081526004016107bd90611d8a565b60405180910390fd5b600360008373ffffffffffffffffffffffffffffffffffffffff1673ffffffffffffffffffffffffffffffffffffffff168152602001908152602001600020549050919050565b6040518060800160405280605781526020016122416057913981565b60606001805461083890611ac4565b80601f016020809104026020016040519081016040528092919081815260200182805461086490611ac4565b80156108b15780601f10610886576101008083540402835291602001916108b1565b820191906000526020600020905b81548152906001019060200180831161089457829003601f168201915b5050505050905090565b6108cd6108c6610ac9565b8383610e86565b5050565b6108e26108dc610ac9565b83610b8a565b610921576040517f08c379a000000000000000000000000000000000000000000000000000000000815260040161091890611c8c565b60405180910390fd5b61092d84848484610ff3565b50505050565b60006109413360065461104f565b60016006546109509190611dd9565b600681905550600654905090565b6060604051806080016040528060578152602001612241605791399050919050565b6000600560008473ffffffffffffffffffffffffffffffffffffffff1673ffffffffffffffffffffffffffffffffffffffff16815260200190815260200160002060008373ffffffffffffffffffffffffffffffffffffffff1673ffffffffffffffffffffffffffffffffffffffff16815260200190815260200160002060009054906101000a900460ff16905092915050565b60007f01ffc9a7000000000000000000000000000000000000000000000000000000007bffffffffffffffffffffffffffffffffffffffffffffffffffffffff1916827bffffffffffffffffffffffffffffffffffffffffffffffffffffffff1916149050919050565b610a878161106d565b610ac6576040517f08c379a0000000000000000000000000000000000000000000000000000000008152600401610abd90611cf8565b60405180910390fd5b50565b600033905090565b816004600083815260200190815260200160002060006101000a81548173ffffffffffffffffffffffffffffffffffffffff021916908373ffffffffffffffffffffffffffffffffffffffff160217905550808273ffffffffffffffffffffffffffffffffffffffff16610b44836106a3565b73ffffffffffffffffffffffffffffffffffffffff167f8c5be1e5ebec7d5bd14f71427d1e84f3dd0314c0f7b2291e5b200ac8c7c3b92560405160405180910390a45050565b600080610b96836106a3565b90508073ffffffffffffffffffffffffffffffffffffffff168473ffffffffffffffffffffffffffffffffffffffff161480610bd85750610bd78185610980565b5b80610c1657508373ffffffffffffffffffffffffffffffffffffffff16610bfe846104bb565b73ffffffffffffffffffffffffffffffffffffffff16145b91505092915050565b8273ffffffffffffffffffffffffffffffffffffffff16610c3f826106a3565b73ffffffffffffffffffffffffffffffffffffffff1614610c95576040517f08c379a0000000000000000000000000000000000000000000000000000000008152600401610c8c90611ea1565b60405180910390fd5b600073ffffffffffffffffffffffffffffffffffffffff168273ffffffffffffffffffffffffffffffffffffffff161415610d05576040517f08c379a0000000000000000000000000000000000000000000000000000000008152600401610cfc90611f33565b60405180910390fd5b610d108383836110d9565b610d1b600082610ad1565b6001600360008573ffffffffffffffffffffffffffffffffffffffff1673ffffffffffffffffffffffffffffffffffffffff1681526020019081526020016000206000828254610d6b9190611f53565b925050819055506001600360008473ffffffffffffffffffffffffffffffffffffffff1673ffffffffffffffffffffffffffffffffffffffff1681526020019081526020016000206000828254610dc29190611dd9565b92505081905550816002600083815260200190815260200160002060006101000a81548173ffffffffffffffffffffffffffffffffffffffff021916908373ffffffffffffffffffffffffffffffffffffffff160217905550808273ffffffffffffffffffffffffffffffffffffffff168473ffffffffffffffffffffffffffffffffffffffff167fddf252ad1be2c89b69c2b068fc378daa952ba7f163c4a11628f55a4df523b3ef60405160405180910390a4610e818383836110de565b505050565b8173ffffffffffffffffffffffffffffffffffffffff168373ffffffffffffffffffffffffffffffffffffffff161415610ef5576040517f08c379a0000000000000000000000000000000000000000000000000000000008152600401610eec90611fd3565b60405180910390fd5b80600560008573ffffffffffffffffffffffffffffffffffffffff1673ffffffffffffffffffffffffffffffffffffffff16815260200190815260200160002060008473ffffffffffffffffffffffffffffffffffffffff1673ffffffffffffffffffffffffffffffffffffffff16815260200190815260200160002060006101000a81548160ff0219169083151502179055508173ffffffffffffffffffffffffffffffffffffffff168373ffffffffffffffffffffffffffffffffffffffff167f17307eab39ab6107e8899845ad3d59bd9653f200f220920489ca2b5937696c3183604051610fe69190611586565b60405180910390a3505050565b610ffe848484610c1f565b61100a848484846110e3565b611049576040517f08c379a000000000000000000000000000000000000000000000000000000000815260040161104090612065565b60405180910390fd5b50505050565b61106982826040518060200160405280600081525061127a565b5050565b60008073ffffffffffffffffffffffffffffffffffffffff166002600084815260200190815260200160002060009054906101000a900473ffffffffffffffffffffffffffffffffffffffff1673ffffffffffffffffffffffffffffffffffffffff1614159050919050565b505050565b505050565b60006111048473ffffffffffffffffffffffffffffffffffffffff166112d5565b1561126d578373ffffffffffffffffffffffffffffffffffffffff1663150b7a0261112d610ac9565b8786866040518563ffffffff1660e01b815260040161114f94939291906120da565b602060405180830381600087803b15801561116957600080fd5b505af192505050801561119a57506040513d601f19601f82011682018060405250810190611197919061213b565b60015b61121d573d80600081146111ca576040519150601f19603f3d011682016040523d82523d6000602084013e6111cf565b606091505b50600081511415611215576040517f08c379a000000000000000000000000000000000000000000000000000000000815260040161120c90612065565b60405180910390fd5b805181602001fd5b63150b7a0260e01b7bffffffffffffffffffffffffffffffffffffffffffffffffffffffff1916817bffffffffffffffffffffffffffffffffffffffffffffffffffffffff191614915050611272565b600190505b949350505050565b61128483836112f8565b61129160008484846110e3565b6112d0576040517f08c379a00000000000000000000000000000000000000000000000000000000081526004016112c790612065565b60405180910390fd5b505050565b6000808273ffffffffffffffffffffffffffffffffffffffff163b119050919050565b600073ffffffffffffffffffffffffffffffffffffffff168273ffffffffffffffffffffffffffffffffffffffff161415611368576040517f08c379a000000000000000000000000000000000000000000000000000000000815260040161135f906121b4565b60405180910390fd5b6113718161106d565b156113b1576040517f08c379a00000000000000000000000000000000000000000000000000000000081526004016113a890612220565b60405180910390fd5b6113bd600083836110d9565b6001600360008473ffffffffffffffffffffffffffffffffffffffff1673ffffffffffffffffffffffffffffffffffffffff168152602001908152602001600020600082825461140d9190611dd9565b92505081905550816002600083815260200190815260200160002060006101000a81548173ffffffffffffffffffffffffffffffffffffffff021916908373ffffffffffffffffffffffffffffffffffffffff160217905550808273ffffffffffffffffffffffffffffffffffffffff16600073ffffffffffffffffffffffffffffffffffffffff167fddf252ad1be2c89b69c2b068fc378daa952ba7f163c4a11628f55a4df523b3ef60405160405180910390a46114ce600083836110de565b5050565b6000604051905090565b600080fd5b600080fd5b60007fffffffff0000000000000000000000000000000000000000000000000000000082169050919050565b61151b816114e6565b811461152657600080fd5b50565b60008135905061153881611512565b92915050565b600060208284031215611554576115536114dc565b5b600061156284828501611529565b91505092915050565b60008115159050919050565b6115808161156b565b82525050565b600060208201905061159b6000830184611577565b92915050565b600081519050919050565b600082825260208201905092915050565b60005b838110156115db5780820151818401526020810190506115c0565b838111156115ea576000848401525b50505050565b6000601f19601f8301169050919050565b600061160c826115a1565b61161681856115ac565b93506116268185602086016115bd565b61162f816115f0565b840191505092915050565b600060208201905081810360008301526116548184611601565b905092915050565b6000819050919050565b61166f8161165c565b811461167a57600080fd5b50565b60008135905061168c81611666565b92915050565b6000602082840312156116a8576116a76114dc565b5b60006116b68482850161167d565b91505092915050565b600073ffffffffffffffffffffffffffffffffffffffff82169050919050565b60006116ea826116bf565b9050919050565b6116fa816116df565b82525050565b600060208201905061171560008301846116f1565b92915050565b611724816116df565b811461172f57600080fd5b50565b6000813590506117418161171b565b92915050565b6000806040838503121561175e5761175d6114dc565b5b600061176c85828601611732565b925050602061177d8582860161167d565b9150509250929050565b6117908161165c565b82525050565b60006020820190506117ab6000830184611787565b92915050565b6000806000606084860312156117ca576117c96114dc565b5b60006117d886828701611732565b93505060206117e986828701611732565b92505060406117fa8682870161167d565b9150509250925092565b60006020828403121561181a576118196114dc565b5b600061182884828501611732565b91505092915050565b61183a8161156b565b811461184557600080fd5b50565b60008135905061185781611831565b92915050565b60008060408385031215611874576118736114dc565b5b600061188285828601611732565b925050602061189385828601611848565b9150509250929050565b600080fd5b600080fd5b7f4e487b7100000000000000000000000000000000000000000000000000000000600052604160045260246000fd5b6118df826115f0565b810181811067ffffffffffffffff821117156118fe576118fd6118a7565b5b80604052505050565b60006119116114d2565b905061191d82826118d6565b919050565b600067ffffffffffffffff82111561193d5761193c6118a7565b5b611946826115f0565b9050602081019050919050565b82818337600083830152505050565b600061197561197084611922565b611907565b905082815260208101848484011115611991576119906118a2565b5b61199c848285611953565b509392505050565b600082601f8301126119b9576119b861189d565b5b81356119c9848260208601611962565b91505092915050565b600080600080608085870312156119ec576119eb6114dc565b5b60006119fa87828801611732565b9450506020611a0b87828801611732565b9350506040611a1c8782880161167d565b925050606085013567ffffffffffffffff811115611a3d57611a3c6114e1565b5b611a49878288016119a4565b91505092959194509250565b60008060408385031215611a6c57611a6b6114dc565b5b6000611a7a85828601611732565b9250506020611a8b85828601611732565b9150509250929050565b7f4e487b7100000000000000000000000000000000000000000000000000000000600052602260045260246000fd5b60006002820490506001821680611adc57607f821691505b60208210811415611af057611aef611a95565b5b50919050565b7f4552433732313a20617070726f76616c20746f2063757272656e74206f776e6560008201527f7200000000000000000000000000000000000000000000000000000000000000602082015250565b6000611b526021836115ac565b9150611b5d82611af6565b604082019050919050565b60006020820190508181036000830152611b8181611b45565b9050919050565b7f4552433732313a20617070726f76652063616c6c6572206973206e6f7420746f60008201527f6b656e206f776e6572206e6f7220617070726f76656420666f7220616c6c0000602082015250565b6000611be4603e836115ac565b9150611bef82611b88565b604082019050919050565b60006020820190508181036000830152611c1381611bd7565b9050919050565b7f4552433732313a2063616c6c6572206973206e6f7420746f6b656e206f776e6560008201527f72206e6f7220617070726f766564000000000000000000000000000000000000602082015250565b6000611c76602e836115ac565b9150611c8182611c1a565b604082019050919050565b60006020820190508181036000830152611ca581611c69565b9050919050565b7f4552433732313a20696e76616c696420746f6b656e2049440000000000000000600082015250565b6000611ce26018836115ac565b9150611ced82611cac565b602082019050919050565b60006020820190508181036000830152611d1181611cd5565b9050919050565b7f4552433732313a2061646472657373207a65726f206973206e6f74206120766160008201527f6c6964206f776e65720000000000000000000000000000000000000000000000602082015250565b6000611d746029836115ac565b9150611d7f82611d18565b604082019050919050565b60006020820190508181036000830152611da381611d67565b9050919050565b7f4e487b7100000000000000000000000000000000000000000000000000000000600052601160045260246000fd5b6000611de48261165c565b9150611def8361165c565b9250827fffffffffffffffffffffffffffffffffffffffffffffffffffffffffffffffff03821115611e2457611e23611daa565b5b828201905092915050565b7f4552433732313a207472616e736665722066726f6d20696e636f72726563742060008201527f6f776e6572000000000000000000000000000000000000000000000000000000602082015250565b6000611e8b6025836115ac565b9150611e9682611e2f565b604082019050919050565b60006020820190508181036000830152611eba81611e7e565b9050919050565b7f4552433732313a207472616e7366657220746f20746865207a65726f2061646460008201527f7265737300000000000000000000000000000000000000000000000000000000602082015250565b6000611f1d6024836115ac565b9150611f2882611ec1565b604082019050919050565b60006020820190508181036000830152611f4c81611f10565b9050919050565b6000611f5e8261165c565b9150611f698361165c565b925082821015611f7c57611f7b611daa565b5b828203905092915050565b7f4552433732313a20617070726f766520746f2063616c6c657200000000000000600082015250565b6000611fbd6019836115ac565b9150611fc882611f87565b602082019050919050565b60006020820190508181036000830152611fec81611fb0565b9050919050565b7f4552433732313a207472616e7366657220746f206e6f6e20455243373231526560008201527f63656976657220696d706c656d656e7465720000000000000000000000000000602082015250565b600061204f6032836115ac565b915061205a82611ff3565b604082019050919050565b6000602082019050818103600083015261207e81612042565b9050919050565b600081519050919050565b600082825260208201905092915050565b60006120ac82612085565b6120b68185612090565b93506120c68185602086016115bd565b6120cf816115f0565b840191505092915050565b60006080820190506120ef60008301876116f1565b6120fc60208301866116f1565b6121096040830185611787565b818103606083015261211b81846120a1565b905095945050505050565b60008151905061213581611512565b92915050565b600060208284031215612151576121506114dc565b5b600061215f84828501612126565b91505092915050565b7f4552433732313a206d696e7420746f20746865207a65726f2061646472657373600082015250565b600061219e6020836115ac565b91506121a982612168565b602082019050919050565b600060208201905081810360008301526121cd81612191565b9050919050565b7f4552433732313a20746f6b656e20616c7265616479206d696e74656400000000600082015250565b600061220a601c836115ac565b9150612215826121d4565b602082019050919050565b60006020820190508181036000830152612239816121fd565b905091905056fe697066733a2f2f62616679626569673337696f6972373673376d67356f6f6265746e636f6a636d3363336878617379643472766964346a71687934676b61686567342f3f66696c656e616d653d302d5055472e6a736f6ea26469706673582212203c8b125e8be54101f25c3bd53d668eeb7c220d7ddacb387a942688b3585c734d64736f6c63430008080033",
  "linkReferences": {},
  "deployedLinkReferences": {}
}